:020000040800F2
:10000000700F0020BD010008532D000823260008B2
:10001000512D0008950C0008253F00080000000045
:10002000000000000000000000000000353900085A
:100030003D0D000800000000093300089D3900084C
:10004000D7010008D7010008D7010008D701000830
:10005000D7010008D7010008D7010008D701000820
:10006000D7010008D7010008D7010008D701000810
:10007000D7010008D7010008D7010008D701000800
:10008000D7010008D7010008D7010008D7010008F0
:10009000D7010008D7010008D7010008D7010008E0
:1000A000D7010008013A0008D7010008D70100086D
:1000B0000D3A0008D7010008D7010008D701000851
:1000C000D7010008D7010008D7010008D7010008B0
:1000D000D7010008ED3E0008D7010008F93E0008EE
:1000E000D7010008D7010008D701000800F002F886
:1000F00000F055F80AA090E8000C82448344AAF16D
:100100000107DA4501D100F04AF8AFF2090EBAE86A
:100110000F0013F0010F18BFFB1A43F0010318473B
:10012000205A0000405A0000103A24BF78C878C115
:10013000FAD8520724BF30C830C144BF04680C60ED
:10014000704700000023002400250026103A28BF35
:1001500078C1FBD8520728BF30C148BF0B60704739
:10016000642900F00781752900F00481782900F0E6
:100170006881732900F04184002070471FB59DE815
:10018000030000F07BFB00F017FD040000200021BD
:1001900003F0D8FF401C60601FBD10B510BD00F01B
:1001A000E6FC1146FFF7EAFF03F09EFF00F016FDA4
:1001B00003B4FFF7F2FF03BC00F046FD0948804797
:1001C00009480047FEE7FEE7FEE7FEE7FEE7FEE739
:1001D000FEE7FEE7FEE7FEE704480549054A064B51
:1001E00070470000FF390008ED000008700900208A
:1001F000700F0020700B0020700B002070B50646B9
:1002000000F01CFB056806F10B0020F00704B44267
:100210009CBF002070BD2B466A68BAB11068A0422E
:1002200010D304F1080188423CBF5068586007D3DE
:100230005168101941601168091B01605860146011
:10024000101D70BD13465268002AE7D1214628468A
:1002500000F000FB0028DED170BD70B50446051F1C
:1002600000F0ECFA0068002C14BF446870BD002C4C
:1002700018BFAC423CBF20466468F8D301680A1836
:10028000AA4218BF456003D12A680546114401609F
:1002900028684119A1421CBF6C6070BD616869602B
:1002A00021680844286070BD0FB41CB5084B06AA2D
:1002B0007B4469460090059800F075FB04460020D9
:1002C000694600F083FB20461CBC5DF814FB00006F
:1002D0001907000070B5044685690068C10601D59C
:1002E000302600E02026C00707D070BDD4E90121E8
:1002F00030469047206A401C20626D1EF6D570BDC6
:1003000070B5044685690078C00707D170BDD4E98F
:10031000012120209047206A401C20626D1EF6D5E6
:1003200070BD70B50C460546012A05D028788006B8
:1003300000D5EA69002302E0012305E05B1C93423B
:1003400002D2E05C0028F9D1A869E618C01AA861B9
:10035000286A184428622846FFF7BCFF04E0D5E964
:10036000012114F8010B9047B442F8D32846FFF757
:10037000C7FF70BD2DE9F0410646002410687529BD
:10038000314616A510D0AFF30080002802DA4042B3
:1003900013A507E031688A0701D512A502E04907D5
:1003A00004D511A5012401E0AFF3008000210A2249
:1003B00006F1240709E0B0FBF2FCB0FBF2F302FB0C
:1003C0001C00303078541846491C0028F3D12346CD
:1003D0002A463046BDE8F04100F086BA0000000031
:1003E0002D0000002B00000020000000F0B40D469E
:1003F0000188090502D5214C7C4402E01F4C7C4455
:100400000E34002100F1240608E002F00F07120963
:10041000E75D42EA03721B097754491C52EA03075D
:10042000F3D102780023120704D5702D06D009B14C
:10043000022311342246F0BC00F056BA01231034D6
:10044000F8E770B504460D4621461068AFF300800A
:10045000024629462046BDE870400023C6E7D21D6B
:1004600022F00703D3E90023C0E70368126843F0D2
:10047000200303600823C3610023B7E7AC550000E5
:100480002DE9F05F894604464FF0000ADFF874B1A9
:10049000FB44C0F820A02046E1688847002874D0BB
:1004A000252806D0D4E901219047206A401C20620B
:1004B000F1E700265F462046E16888472028054688
:1004C00007DB312D05D2781910F8200C08B106434E
:1004D000F1E7B00701D526F00406C4F81CA00027F8
:1004E000C4F818A02A2D09D0284603F099FD38B386
:1004F00004EB8708303DC8F8185019E059F8041B80
:10050000204604EB87029161E1688847012F054688
:1005100018D1E069002820DA26F020061DE0D8F87E
:10052000180000EB800005EB40003038C8F81800D8
:100530002046E1688847054603F072FD0028EED1A9
:10054000012F0AD02E2D08D12046E16888477F1C54
:100550000546022F46F02006C4DBA069002803DA16
:10056000404246F00106A061F00701D026F01006D7
:100570006C2D0BD0682D09D04C2D39D06A2D35D07B
:10058000742D35D07A2D33D016E038E0E1682F464F
:1005900020468847B842054609D16C2F26D04FF433
:1005A0008060E168064320468847054604E06C2FDA
:1005B0001AD04FF4807006430DB3A5F141001928FD
:1005C00002D8203546F400664A4629462046266071
:1005D0004E46FFF7C5FD80B101280BD0F61D26F071
:1005E000070000F1080956E74020E4E78020D8E73B
:1005F0000020D6E706F104094DE7284652E7206AB5
:10060000BDE8F09F3C55000070B5064600F01AF9B1
:100610000468054630460A22002100F0F2F92C60F9
:1006200070BD30B505460B462A4613F8014B12F84B
:10063000010B08B1A042F8D01CB1002802D06D1CFB
:10064000F1E7284630BD40EA0103024630B59B077A
:1006500010D14FF0013400E008C208C91D1B9D43B2
:1006600015EAC41FF8D013F0FF0102F8011B0DD0EA
:100670001B0AF8E711F8013B002B02F8013B05D0FB
:1006800011F8013B002B02F8013BF3D130BD10B54E
:10069000431C02E010F8011B71B18107FAD14FF041
:1006A000013202C88C1A8C4314EAC211F9D0C01A64
:1006B0000A0603D0C01E10BDC01A10BD0A0401D026
:1006C000801E10BD0902FCD0401E10BD4FF000027C
:1006D0000429C0F0128010F0030C00F01B80CCF154
:1006E000040CBCF1020F18BF00F8012BA8BF20F8C2
:1006F000022BA1EB0C0100F00DB85FEAC17C24BF16
:1007000000F8012B00F8012B48BF00F8012B7047BF
:100710004FF0000200B5134694469646203922BF9A
:10072000A0E80C50A0E80C50B1F12001BFF4F7AFE5
:10073000090728BFA0E80C5048BF0CC05DF804EBC7
:10074000890028BF40F8042B08BF704748BF20F835
:10075000022B11F0804F18BF00F8012B704710B525
:10076000044610F0030F08BF11F0030F40F015808E
:100770004FF0013E121FC0F20E8051F8043BA3EB74
:100780000E0C2CEA030C1CEACE1C08BF40F8043BFC
:10079000F0D0A1F1040102F10402521E08DB11F8AD
:1007A000013B002B00F8013BF7D11146FFF78EFF0C
:1007B000204610BD4FF0013C50F8042B51F8043B8B
:1007C0009A4221D1A2EB0C03934313EACC1317D125
:1007D00050F8042B51F8043B9A4215D1A2EB0C03BC
:1007E000934313EACC130BD150F8042B51F8043B7C
:1007F0009A4209D1A2EB0C03934313EACC13DBD04A
:100800004FF00000704700BFD01A01BAB1FA81F171
:1008100001F0180122FA01F0CB40C1F12001DBB256
:10082000C0B2C01A2CFA01F3D11A914311EAC311D4
:10083000E6D1704770477047704700000048704726
:1008400014090020004870470C09002070477047C9
:100850007047704738B504460A4600206946AFF332
:100860000080002808BF38BD02460099204600F0ED
:100870000DF9012038BD012000F071B9F8B5AFF3D2
:100880000080054600200C46102000BF0646A8192F
:10089000A0420DD9324669460020AFF30080070020
:1008A00008BF00F05CF90098A04218BF0546C419C3
:1008B000FFF7C4FF05600746F01D20F0070046194A
:1008C000284600F00AF8B44208BFF8BDA21B314622
:1008D0003868BDE8F84000F0D9B800210160C0E9EF
:1008E00001107047102070472DE9F0470D469946DA
:1008F0009246044600F124080168880604D5E069A0
:1009000021F01001216000E00120A84201DD471B19
:1009100000E00027A1697A1902EB0900081AA0611A
:100920002078C00602D42046FFF7D4FC002608E059
:10093000D4E901211AF806009047206A401C761C71
:1009400020624E45F4DB2078C0060AD52046FFF72A
:10095000C1FC06E0D4E9012130209047206A401C08
:100960002062381EA7F10107F4DC07E0D4E9012179
:1009700018F805009047206A401C2062281EA5F147
:100980000105F3DC2046FFF7BBFC2078000602D50A
:100990000220BDE8F0870120FBE7000001694A1C46
:1009A00002610878704700B58FB0CDE901310021B0
:1009B000059105497944CDE9031011466846FFF7D2
:1009C0005FFD0FB000BD0000E5FFFFFF0A6802F801
:1009D000010B0A60704710B5436913B1AFF3008093
:1009E00001E0FFF79EFC012010BD127800F1240108
:1009F0000A7000224A700122EDE711684FF0FF32C1
:100A0000E9E72DE9F04791460F4680460446002667
:100A100014F8015B2DB100F031F80068405DC007AB
:100A2000F6D12B2D02D02D2D18D0641E4A46394602
:100A3000204600F045F827B13968A14201D1C7F836
:100A400000804FF0020471050BD54042002803DD01
:100A5000FFF7F8FE0460A007BDE8F08746F4806663
:100A6000E4E70028F8DAFFF7EDFE04606FF00040DD
:100A7000F2E70000004870470C09002010B500F0B4
:100A80009BF8001D10BD00BFBD3600000346406846
:100A90008C46002818BF88423CBF03464068F8D304
:100AA00018681844884207D00CF1030020F00700B2
:100AB000001D411A521A0146081D0A60FFF7CDBBFE
:100AC0002DE9F05F824615468B4600270AF10104A6
:100AD000B9460078302801D09DB113E014F8010B1D
:100AE0000127782803D0582801D045B10AE00DB17C
:100AF000102D07D1002714F8010B102502E008255E
:100B000000E00A250026B0460EE005FB080005FBC4
:100B100006F101271FFA80F801EB1046B6F5803F79
:100B200000D3B94614F8010B294600F049F8002813
:100B3000EBDABBF1000F05D00FB1641E00E05446A4
:100B4000CBF80040B9F1000F06D0FFF77BFE022181
:100B50000160C81EBDE8F09F48EA0640FAE710B5FC
:100B600000F04AF8BDE8104000F041B87047754603
:100B7000FFF780FFAE4605006946534620F00700A8
:100B8000854618B020B5FFF727FBBDE820404FF0A1
:100B900000064FF000074FF000084FF0000B21F067
:100BA0000701AC46ACE8C009ACE8C009ACE8C00934
:100BB000ACE8C0098D467047004870472C090020FA
:100BC0003A2800D2303820F02002412A01D3A2F185
:100BD0003700884201D34FF0FF30704710B504460C
:100BE000AFF300802046BDE81040FFF7E1BA0028CF
:100BF00001D000F029B8704710B5012805D00021B8
:100C000003A000F027F8012010BD09A1F8E70000BB
:100C100053494752544D454D3A204F7574206F66E5
:100C20002068656170206D656D6F7279000000004D
:100C30003A2048656170206D656D6F727920636F31
:100C4000727275707465640001491820ABBEFEE7CE
:100C50002600020070B505460C460A2000E06D1C17
:100C600000F011F835B128780028F8D102E0641CB2
:100C700000F009F814B120780028F8D1BDE87040E0
:100C80000A20AFF3008008B569468DF80000032004
:100C9000ABBE08BDFEE770B50C46054602F0B8FDD8
:100CA00020EA04012846BDE8704003F03DB9000089
:100CB00010B5044686B064211148FFF707FD012CEA
:100CC00015D010484189C278837840780094CDE9E6
:100CD0000103CDE903210C4B0C4A0D490848FFF7ED
:100CE000E3FA06B00648BDE8104000F0CFB9064B65
:100CF000064A08A102480094FFF7D6FAF1E700007F
:100D00005C000020000000203B0000203600002096
:100D1000E45900087B22666F6E74223A2225732202
:100D20002C226E756D626572223A222573222C2266
:100D3000666C6167223A25647D0D0A00704700B534
:100D400002464FF47A7302E0184600F003F8521E90
:100D5000FAD200BD00EBC000C1004FF0E0204161BD
:100D600000218161052101610169C903FCD50421CC
:100D70000161704710B54FF496710348FFF7A6FC68
:100D800002490020088010BD800600202E000020AF
:100D900010B5B4B0C82101A8FFF7BAFC2A4C2BA1AA
:100DA000E0680090D4E9013201A8FFF77DFA6422DF
:100DB00032A101A800F04CF90028F8D1C82101A8FF
:100DC000FFF7A6FC2EA101A82269FFF76DFA6422A5
:100DD0002AA101A800F03CF90028F8D1C820FFF7AB
:100DE000AEFFC82101A8FFF793FC2CA101A86269FE
:100DF000FFF75AFA642221A101A800F029F900287E
:100E0000F8D1C82101A8FFF783FCD4E901232AA166
:100E100001A8FFF749FA642218A101A800F018F907
:100E2000C82101A8FFF774FCD4E901232BA101A874
:100E3000FFF73AFA642211A101A800F009F900288D
:100E4000F8D134B010BD00001000002041542B4DEB
:100E5000515454555345524346473D302C312C2272
:100E60004E554C4C222C222573262573222C2225EC
:100E700073222C302C302C22220D0A004F4B000004
:100E800041542B4D515454434C49454E5449443DD3
:100E9000302C222573220D0A0000000041542B4DF6
:100EA000515454434F4E4E3D302C222573222C3149
:100EB0003838332C310D0A0041542B4D51545453C2
:100EC00055423D302C222F25732F25732F757365C6
:100ED000722F676574222C310D0A000041542B4D8E
:100EE0005154545355423D302C222F7379732F2582
:100EF000732F25732F7468696E672F736572766917
:100F000063652F70726F70657274792F73657422C8
:100F10002C310D0A0000000070B504460D4D13E0A1
:100F200000F0EEF868B90CA10E48FFF77AFB40B16B
:100F300005210DA002F0DCFC411C00D02870FFF759
:100F400019FF0120FFF7FBFE2046641EA4B2E7D282
:100F500070BD0000000000204D51545453554252C2
:100F600045435600800600207072696365000000EA
:100F700010B5012219491A4801F0B8FA642219A1E2
:100F800019A000F065F80028F8D1642215A118A076
:100F900000F05EF84FF47A70FFF7D1FE642211A1E1
:100FA00016A000F055F80028F8D164220DA115A074
:100FB00000F04EF80028F8D164220AA115A000F034
:100FC00047F80028F8D1642216A119A000F040F8D3
:100FD0000028F8D1BDE81040FFF7DABE2C00002051
:100FE000A80100204F4B000041540D0A00000000F2
:100FF00041542B5253540D0A000000004154453017
:101000000D0A000041542B43574D4F44453D310DCF
:101010000A00000041542B4349504D55583D300DB6
:101020000A0000005749464920474F5420495000C4
:1010300041542B43574A41503D2244504A303736A1
:10104000222C223132333435363738220D0A000053
:1010500070B514460D4602F055FF64200DE000BF48
:1010600000F04EF840B929460748FFF7DAFA18B100
:10107000FFF780FE002070BD0120FFF760FE641EB8
:10108000A4B2EDD2012070BD8006002010B5B2B030
:101090000446FFF7FCFA83B20C480DA1826968464A
:1010A000FFF702F9642212A16846FFF7D1FF00287A
:1010B000F8D16420FFF743FE01220EA12046FFF77E
:1010C000C7FF6420FFF73BFE32B010BD10000020C8
:1010D00041542B4D5154545055425241573D302CA0
:1010E000222573222C25752C302C300D0A0000008F
:1010F0003E0000004D5154545055423A4F4B0000B1
:101100000B4810B50178022902D2491C01700AE08F
:10111000084A00230370118829B14488A14204D1F0
:101120001380002010BD012010BD4180FBE70000AE
:10113000100000202E00002072B6FEE710B590F8D7
:1011400021100022022905D00421816380F820208B
:10115000012010BD01680B6823F00E030B600168CD
:101160000B6823F001030B6090F84030C46B012141
:1011700001FA03F3636080F8211080F82020104604
:1011800010BD000010B590F821100024022903D0F2
:101190000421816301243DE001680A6822F00E0207
:1011A0000A6001680A6822F001020A601A4A0168AE
:1011B000914201D1012121E0174A1432914201D11B
:1011C00010211BE0144A2832914201D1891515E003
:1011D000114A3C32914201D189140FE00E4A50323B
:1011E000914202D14FF4803108E00B4A64329142BF
:1011F00002D14FF4801101E04FF08071064A083AA5
:101200005160012180F82110002180F82010416BED
:1012100001B18847204610BD080002402DE9F84F73
:10122000DFF8B8910024A9F1040B23460F2709F138
:10123000040AABF1040EC9E00125A5402A40AA42E8
:101240007DD1674ED1F804C0ACEB0608B44532D06E
:1012500014DCBCF1030F3AD009DCBCF1000F2AD03A
:10126000BCF1010F1CD0BCF1020F31D11DE0BCF16B
:10127000110F17D0BCF1120F2AD119E0B8F5881F51
:1012800019D006DCB8F5803F15D0B8F5801F1FD106
:1012900011E0B8F5001F0ED0B8F5041F18D10AE010
:1012A000CB6815E0CB681B1D12E0CB6808330FE05C
:1012B000CB680C330CE08B682BB1012B4FF008038B
:1012C00003D0456104E0042302E0056100E000234F
:1012D000FF2A01D8064601E000F104064FEA840522
:1012E00001D9A5F12005D6F8008007FA05FC28EA07
:1012F0000C0803FA05F548EA0508C6F800804D68B1
:10130000ED0062D5374DAE6946F00106AE61AD69BC
:1013100024F0030605F001050095334D06EB050C9E
:10132000DCF80850A607360F07FA06F825EA080584
:10133000DFF8B880404503D14FF0000817E044E0E3
:10134000DFF8AC80404502D14FF001080FE0DFF834
:10135000A480404502D14FF0020808E0DFF89880F1
:10136000404502D14FF0030801E04FF0040808FAAD
:1013700006F848EA0508CCF808804D68D9F80060FE
:10138000ED024D4601D5164300E096432E604D68B0
:10139000DAF80060AD02554601D5164300E09643E9
:1013A0002E604D68DBF80060AD035D4601D5164345
:1013B00000E096432E604D68DEF80060ED03754650
:1013C00001D5164300E096432E60641C0D682A4642
:1013D000E5407FF431AFBDE8F88F0000080401401C
:1013E0000000111000100240000001400008014000
:1013F000000C0140001001400014014080680840CA
:1014000000D0012070470AB1016170470904FBE771
:1014100001488068704700004C0000200248816845
:1014200002781144816070474C000020074810B5D5
:10143000016841F010010160032000F075F80F20F1
:1014400000F006F800F024F8002010BD0020024053
:1014500070B50D4D04464FF47A712878B1FBF0F069
:101460000A490968B1FBF0F000F0DCFA48B9102C29
:1014700007D200222146501E00F036F800206C6092
:1014800070BD012070BD00004C00002058000020FD
:101490000C4808B5816941F001018161816901F061
:1014A00001010091C16941F08051C161C06900F042
:1014B000805000900448416821F0E06141F00071E3
:1014C000416008BD0010024000000140002809DB17
:1014D00000F01F02012191404009800000F1E0204E
:1014E000C0F8001170470000F0B40E4B1B680C46AA
:1014F000C3F30223C3F10705042D00D90425191DE8
:10150000072901D2002300E0DB1E012606FA05F1BF
:10151000491E214099409E40761E16403143F0BC42
:1015200002F06EBD0CED00E0064900F0070208680D
:101530004FF6FF03184040EA0220034A10430860B8
:10154000704700000CED00E00000FA052DE9F047BF
:101550000F46050061D0434E306800F00700B842E6
:1015600009D2306820F0070038433060306800F05E
:101570000700B84251D128683B4C810712D540077B
:1015800003D5606840F4E06060602878000703D508
:10159000606840F4605060606068A96820F0F00006
:1015A000084360602878C00728D06868012810D0F8
:1015B0002168022810D0890700292EDA616821F0FD
:1015C000030101436160FFF723FF804641F2883940
:1015D0000DE021688903EFE78901EDE7FFF718FFC8
:1015E000A0EB0801494502D90320BDE8F0876068F7
:1015F000696800F00C00B0EB810FEFD1306800F0AB
:101600000700B8420BD9306820F00700384330603B
:10161000306800F00700B84201D00120E5E72878E3
:10162000400705D56068E96820F4E0600843606021
:101630002878000706D56068296920F4605040EAE0
:10164000C100606000F038F86168084AC1F3031116
:10165000515CC8400649086006480068FFF7F8FE7C
:101660000020C2E70020024000100240905900080C
:1016700058000020500000200448054900684968CF
:10168000044AC1F30221515CC84070475800002051
:1016900000100240A0590008044805490068496844
:1016A000044AC1F3C221515CC84070475800002071
:1016B00000100240A05900080E4A51680E4801F07F
:1016C0000C03042B11D0082B0FD10C48C1F383431A
:1016D000C903C05C0AD55168084AC1F34041921E53
:1016E000515C054A5043B0FBF1F070470449484350
:1016F000704700000010024000127A008059000874
:1017000000093D002DE9F84F040070D02078C04D4D
:10171000C00749D06868C0F38100012807D0686815
:10172000C0F38100022809D16868C00306D5286883
:10173000800339D560680028E7D035E06068B0F5EF
:10174000803F0BD010B1B0F5A02F11D0286820F445
:1017500080302860286820F4802002E0286840F467
:1017600080302860606890B1FFF752FE06460AE0BC
:10177000286840F480202860F0E700BFFFF748FEAB
:10178000801B642873D828688003F7D50CE0FFF726
:101790003FFE064605E000BFFFF73AFE801B6428C7
:1017A000F0D828688003F7D420789A4E80074FF04D
:1017B00001094FF0000839D5686810F00C0F07D008
:1017C0006868C0F38100022809D16868C00306D4A4
:1017D0002868800714D52069012808D110E0206905
:1017E000B0B1C6F80090FFF713FE074605E00AE126
:1017F000FFF70EFEC01B0228C4D828688007F7D563
:101800002868616920F0F80040EAC10028600DE016
:10181000C6F80080FFF7FCFD074604E0FFF7F8FD7F
:10182000C01B022823D828688007F7D42078000737
:101830002CD57948A169D9B1C0F80090FFF7E8FD2F
:10184000074604E0FFF7E4FDC01B02280FD8686AD2
:101850008007F7D571484FF4FA510068B0FBF1F0FA
:10186000009000BF0098411E0091FAD20EE080E087
:10187000C0F80080FFF7CCFD074604E0FFF7C8FD85
:10188000C01B022875D8686A8007F7D42078400703
:1018900060D5E8690027C00008D4E86940F08050AE
:1018A000E861E869012700F0805000905C48016819
:1018B000C90513D40168834641F480710160FFF7C4
:1018C000A7FD824606E000BFFFF7A2FDA0EB0A00DD
:1018D00064284ED8DBF80000C005F5D5E068012883
:1018E0000AD008B1052813D0286A20F00100286228
:1018F000286A20F0040002E0286A40F00100286213
:10190000E06841F2883B98B1FFF782FD82460BE028
:10191000286A40F004002862EEE700BFFFF778FD78
:10192000A0EB0A0159455AD8286A8007F6D50CE081
:10193000FFF76EFD824605E0FFF76AFDA0EB0A01A6
:1019400059454CD8286A8007F6D41FB1E86920F0C1
:101950008050E861E06988B36968C1F381010229B8
:1019600044D00228C6F8608004D0FFF751FD044639
:1019700038E034E0FFF74CFD074604E0FFF748FD90
:10198000C01B02282BD828688001F7D4206AB0F544
:10199000803F05D16868A16820F400300843686082
:1019A000D4E908010843696821F4741108436860A8
:1019B000C6F86090FFF72CFD044606E025E000BF66
:1019C000FFF726FD001B022809D828688001F7D5FB
:1019D0001BE000BFFFF71CFD001B022802D90320FB
:1019E000BDE8F88F28688001F4D40EE00128F7D014
:1019F0006868226A00F48031914204D1616A00F47F
:101A00007010884201D00120EAE70020E8E70000DA
:101A10000010024000004242800442425800002070
:101A20000070004010B5401EB0F1807F01D301204E
:101A300010BD4FF0E02460610F21601702F0E0FA62
:101A40000020A06107202061002010BD7047704772
:101A500070B590F83C20012A26D0012480F83C4043
:101A6000022280F83D2003685A689D6822F07006C3
:101A70000A6832435A600D4B02689A4208D0B2F1AC
:101A8000804F05D00A4B9A4202D00A4B9A4204D1A9
:101A9000496825F080031943916080F83D4000219A
:101AA00080F83C10084670BD022070BD002C01403B
:101AB000000400400008004010B5040003D094F872
:101AC0003D0010B107E0012010BD002084F83C006B
:101AD000204600F01FF8022084F83D00211D2068F8
:101AE00001F09AFF012084F8460084F83E0084F853
:101AF0003F0084F8400084F8410084F8420084F8F4
:101B0000430084F8440084F8450084F83D00002038
:101B100010BD000008B5154A0168154891420ED164
:101B2000816941F4006181618069002200F40060F4
:101B3000009011461920FFF7D7FC192010E0B1F1F1
:101B4000804F11D1C16941F00101C161C06900221A
:101B500000F00100009011461C20FFF7C5FC1C207E
:101B6000BDE80840FFF7B2BC08BD0000002C0140F2
:101B70000010024090F83D10012901D0012070476B
:101B8000022180F83D100168CA6842F00102CA6073
:101B900000680B49884208D0B0F1804F05D0094950
:101BA000884202D00849884204D1816801F00701C7
:101BB000062903D0016841F001010160002070474F
:101BC000002C0140000400400008004070B50446AD
:101BD00090F83C000025012817D0012684F83C60CD
:101BE000022084F83D002068826822F0770222F407
:101BF0007F4282600868502838D00DDC20284FD002
:101C000005DC90B3102811D14AE0022070BD3028C5
:101C100046D040280AD13BE060282FD070280DD054
:101C2000B0F5805F03D0B0F5005F12D0012584F8D5
:101C30003D60002084F83C00284670BDCB68D1E9A7
:101C40000121206801F031FF2068816841F07701AF
:101C500009E0CB68D1E90121206801F026FF206866
:101C6000816841F480418160E1E719E0CA68496810
:101C7000206801F0CFFF5021206806E0CA6849685B
:101C8000206801F0D8FF6021206801F018FFCEE73E
:101C9000CA684968206801F0BDFF40212068F4E768
:101CA000226801461046F0E770472DE9F0410446EE
:101CB0000068C66805694FF00007A90713D5B1078A
:101CC00011D5F91E01610120207720688069800705
:101CD000204602D0FFF7E8FF04E000F0A5F8204618
:101CE00000F04AF92777680716D5700714D52168E0
:101CF0006FF004000861022020772068806910F4EA
:101D0000407F204602D0FFF7CFFF04E000F08CF8C0
:101D1000204600F031F92777280715D5300713D56D
:101D200021686FF008000861042020772068C069EE
:101D30008007204602D0FFF7B7FF04E000F074F8F8
:101D4000204600F019F92777E80616D5F00614D5D5
:101D500021686FF010000861082020772068C069B2
:101D600010F4407F204602D0FFF79EFF04E000F011
:101D70005BF8204600F000F92777E80708D0F00765
:101D800006D021686FF001000861204600F044F998
:101D9000280608D5300606D521686FF08000086156
:101DA0002046FFF753FE680608D5700606D5216861
:101DB0006FF040000861204600F098F9A8060AD5A7
:101DC000B00608D521686FF0200008612046BDE804
:101DD000F041FFF73CBEBDE8F081000000B585B0E2
:101DE0000021009101910291039100680B49884202
:101DF00011D10B48816941F0080181618069694610
:101E000000F00800049080200090022001900390D0
:101E10000448FFF703FA05B000BD000000080040C9
:101E200000100240000C0140704770B5044690F865
:101E30003C0000260D4601280FD0012084F83C000C
:101E40006AB1042A1DD0082A2FD00C2A3FD00126BF
:101E5000002084F83C00304670BD022070BD206830
:101E600001F036FE2068816941F008018161206837
:101E7000816921F004018161206881692A69114327
:101E800011E0206801F04CFE2068816941F4006196
:101E900081612068816921F48061816120688169A4
:101EA0002A6941EA02218161D2E7206801F064FEDB
:101EB0002068C16941F00801C1612068C16921F051
:101EC0000401C1612068C1692A69114311E02068D9
:101ED00001F07EFE2068C16941F40061C1612068A3
:101EE000C16921F48061C1612068C1692A6941EA40
:101EF0000221C161ACE710B5040003D094F83D00A5
:101F000010B107E0012010BD002084F83C002046FD
:101F100000F01EF8022084F83D00211D206801F029
:101F20007BFD012084F8460084F83E0084F83F00E1
:101F300084F8400084F8410084F8420084F84300AB
:101F400084F8440084F8450084F83D00002010BD6A
:101F500008B500680649884208D10648C16941F0C1
:101F60000401C161C06900F00400009008BD0000D8
:101F700000080040001002407047000010B5044601
:101F8000022249B104290ED0082913D094F8410047
:101F9000012816D0012010BD94F83E000128F9D187
:101FA00084F83E200FE094F83F000128F2D184F835
:101FB0003F2008E094F840000128EBD184F840204D
:101FC00001E084F841200122206801F061FD0F4901
:101FD0002068884203D1426C42F400424264206887
:101FE000884208D0B0F1804F05D00949884202D01C
:101FF0000849884204D1816801F00701062903D00D
:10200000016841F001010160002010BD002C014079
:1020100000040040000800402DE9F04100682F490D
:10202000002688422CD12E4F002540213846FFF74C
:10203000E5F92C4C4FF4804120703846FFF7DEF96B
:10204000E070012205EB45010819837823B1012BCB
:1020500006D0022B0ED108E0615C59B9827009E00C
:10206000615C39B90221817004E0615C012901D110
:10207000867042706D1CEDB2022DE3D3BDE8F08195
:10208000B0F1804FFAD11848006807E090F864106A
:102090003B2906D0491C80F86410806E0028F5D1D9
:1020A000ECE780F8646090F865103B2903D0491C88
:1020B00080F86510F1E780F8656090F866101729E0
:1020C00003D0491C80F86610E7E780F8666090F856
:1020D0006710491C80F86710DFE70000002C014002
:1020E000000C0140440000200C00002070477047A5
:1020F00070470000F8B5016804460868CA684B6973
:1021000010F00F0F4FF000055AD003F0010602F453
:102110009077374365D0C10705D0D10503D5616CF1
:1021200041F001016164410705D5D90703D0616C15
:1021300041F002016164810705D5D90703D0616CC4
:1021400041F004016164010707D502F02001314329
:1021500003D0616C41F008016164616C00293BD0DF
:10216000800604D5900602D5204601F0AEFD206819
:102170004069616CC0F3801001F008010143204602
:102180002BD001F07BFD20684069400621D52068F6
:10219000143050E8001F21F0400140E80012002AEE
:1021A000F5D1E06BA8B16D494163E06BFEF7EAFF42
:1021B000002811D0E06B416B01B0BDE8F04008474A
:1021C00083060ED593060CD52046BDE8F84001F0F5
:1021D0007CBD2046FFF78CFFF8BDFFF789FF6564E3
:1021E000F8BD266B2023012E7CD1C6067AD5D606F3
:1021F00078D508684868009048694FF002064006A4
:1022000040D5E16B086840680004000CE8D0A28D5E
:102210008242E5D9E085886920282DD020680C30DD
:1022200050E8001F21F4807140E80012002AF5D127
:102230002168143151E8000F20F0010041E800024C
:10224000002AF5D12068143050E8001F21F0400129
:1022500040E80012002AF5D184F842302563206856
:102260000C3050E8001F21F0100140E80012002A55
:10227000F5D1E06BFEF762FF6663A08DE18D401A39
:1022800081B22AE0A08DE18D401A81B2E08D002854
:10229000A6D00029A4D022680C3252E8000F20F406
:1022A000907042E80007002FF5D12068143050E804
:1022B000002F22F0010240E80027002FF5D184F81A
:1022C0004230256320680C3050E8002F22F01002C5
:1022D00040E80023002BF5D166632046FFF707FF97
:1022E000F8BDFFE705062BD5150629D594F8410062
:1022F0002128F5D1A068B0F5805F01D12069B0B187
:10230000206A411C2162216800784860E08C401EF0
:102310000004000CE084E3D12068C16821F0800152
:10232000C1602068C16841F04001C160D8E7206AFF
:102330000088C0F308004860206A801C2062E5E73E
:102340004006CDD55006CBD5CA68204622F04002C3
:10235000CA6084F8413000F063F9C1E76D3C0008C1
:1023600070B5040004D094F84100002510B106E0D7
:10237000012070BD84F84050204600F023F824204E
:1023800084F841002068C16821F40051C1602046F2
:1023900001F0FCFC2068016921F490410161206892
:1023A000416921F02A0141612068C16841F400516E
:1023B000C1606564202084F8410084F842006563B0
:1023C000002070BDF0B585B0002400940194029403
:1023D000039403683F4F02203F4903223F4D4602CA
:1023E000BB4225D18B6943F480438B618B6903F435
:1023F000804304938B6943F004038B6189690392E2
:1024000001F0040104910102CDE90010694628465B
:10241000FEF704FFCDE90064694628460294FEF702
:10242000FDFE002211462520FFF75EF825204DE035
:102430002B4FBB4221D1CB6943F40033CB61CB6935
:1024400003F4003304938B6943F004038B618969BF
:10245000039201F0040104910421CDE900106946C2
:102460002846FEF7DBFE0820CDE900046946284631
:102470000294FEF7D3FE05B0F0BD1A4DAB42FAD17F
:10248000CB6943F48023CB61CB6903F480230493AD
:102490008B6943F008038B618969134D01F00801D2
:1024A000CDE90321CDE9006069462846FEF7B6FE76
:1024B000E814CDE90004694628460294FEF7AEFE12
:1024C000002211462720FFF70FF82720FEF7FEFF16
:1024D000D1E7000000380140001002400008014030
:1024E0000044004000480040000C014090F8423099
:1024F000202B01D00220704721B11AB100230363C1
:1025000001F0A0BC0120704770B500681549002596
:10251000154C4FF4967688420FD1144A6088217882
:102520001154401C6080012221461148FFF7DEFF54
:102530006088B04200D3658070BD0E498842FBD1EF
:102540000D4AA08861781154401C0749A0800122DF
:10255000491C0A48FFF7CAFFA088B042ECD3A58007
:1025600070BD0000003801402C00002080060020D3
:10257000A801002000480040AC07002038020020DD
:102580002DE9F843044690F84100984616460D465A
:10259000202802D00220BDE8F88385B17EB100205A
:1025A0006064212084F84100FEF732FFA684814652
:1025B000E684A0682027B0F5805F02D003E0012008
:1025C000E9E7206910B12E4600250EE000260CE058
:1025D0008021204601F051FCA8B9C6B116F8010BC4
:1025E00021684860E08C401EE084E08C4B464FF050
:1025F0000002CDF800800028EAD14FF040012046CB
:1026000001F03BFC40B184F841700320C3E735F88A
:10261000020BC0F30800E3E784F841700020BAE73A
:102620007047FEE710B50446417D132000F012F814
:102630000A20FEF784FB217D072000F00BF82146DD
:10264000022000F03BF8BDE810404FF47A70FEF72E
:1026500076BB00001CB5184B0728D3E90123CDE950
:1026600000238DF8010013D0192811D022280FD093
:1026700023280DD001228DF802208DF803109DF83B
:102680000020491C104408448DF8040005210FE087
:1026900002228DF8022000228DF803209DF80020F0
:1026A0008DF804101044801C08448DF805000621A4
:1026B000684601F0D3FA1CBD7459000870B58EB09D
:1026C0000D46064630216C4601A8FEF721F8194850
:1026D000006800902846FDF7DAFF401D8DF80200E3
:1026E0008DF80360042003E02154401CC0B26D1C2F
:1026F00029780029F8D12A212154401CC0B23F2159
:102700002154401CC0B22154401CC0B22154401C72
:10271000C1B2002005E0235C625C401C1A44625494
:10272000C0B28842F7D3491CC9B2684601F096FA94
:102730000EB070BD745900080148FFF71BBA0000C5
:10274000D00000202DE9F041154D0127154C687887
:102750000026012813D12178A81E11B1012902D029
:102760000CE007700AE04178012914D047704078E6
:102770005A21484301F040FE01F0F6F86E702879C6
:10278000012806D100F0E6FA2078012805D027704C
:102790002E71BDE8F0814670E9E72670F8E7000089
:1027A000440000200700002003211420FEF773BA24
:1027B00010B5142001F02CF8800705D10321BDE8E5
:1027C0001040142001F0DEB810BD70B50646082197
:1027D00088B000240846FEF75EFA00210D2001F0C3
:1027E000A3FB80210E20FEF756FA93208DF80400FB
:1027F00020208DF8050006A801AB009002221946A2
:102800000C2000F083F8054626280DD1002101A8F0
:10281000425C7254425C491C5440C9B20429F7D34B
:10282000405CA04200D0BB2580210E2001F0AAF818
:1028300008B0284670BD30B50C460546082187B063
:102840000846FEF728FA07210D2001F06DFB032151
:10285000142001F097F806A801AB00908DF8045001
:10286000012219460C2000F051F8262802D10699C1
:10287000102902D0BB2007B030BD9DF80410217094
:102880009DF805106170F6E710B51F4C012202217A
:102890002046FEF7B8FD0120FEF75CFA0022022177
:1028A0002046FEF7B0FD0120FEF754FA0122022176
:1028B0002046FEF7A8FD0120FEF74CFA0F2101206B
:1028C00001F032FB012000F0A3FFC006FAD4012082
:1028D000FEF740FA3D21112001F026FB1E212D209C
:1028E00001F022FB00212C2001F01EFB8D212A206B
:1028F00001F01AFB3E212B2001F016FB4021152090
:1029000001F012FB262010BD000C01402DE9FF5FF5
:102910000027BB25DDF838A016468B468146B84611
:102920000C2805D0B9F10E0F05D11227102001E0B7
:1029300077273020804647F08001022001F0F4FA2A
:1029400080210420FEF7A7F90021012001F0ECFA14
:1029500080210A2001F016F8002405E01BF804107D
:10296000092001F0E1FA641CB442F7D34946012082
:1029700001F0DAFAB9F10C0F03D180210D2001F03A
:1029800001F8042000F044FF40F2DC56042000F07F
:102990003FFF0446761E04D0E00702D114EA080F78
:1029A000F4D080210D20FEF776F936B1062000F034
:1029B0002FFF10F01B0F0CD0BB2580210C2000F046
:1029C000E1FF0021012001F0AFFA04B02846BDE884
:1029D000F09F26253C40E00700D0CC25B9F10C0F34
:1029E000EBD10A2000F014FF04460C2000F010FF89
:1029F00010F007004FEAC40101D008390144CAF8B9
:102A0000001024B1122C04D91224002603E0012462
:102A1000FBE7002605E0092000F0FAFE039988553F
:102A2000761CA642F7D3C8E770B586B005460024E9
:102A300069465220FFF7FFFE262806D0FFF724FF45
:102A4000FFF7B2FEFFF7B4FE04E06846FFF7BDFEF5
:102A5000262802D0002006B070BD6E4606E0325D2A
:102A6000281907A1FDF720FC641CE4B26846FDF7B5
:102A70000EFE401EA042F2D80020E8740120EAE7D2
:102A8000255800002DE9F04186B00024324800941A
:102A9000019402940394816941F02001816181696C
:102AA00001F020010491816941F004018161816993
:102AB00001F004010491816941F00801816180699C
:102AC000264F00F008000490002270213846FEF7DF
:102AD0009AFCDFF88C80002240F202314046FEF77B
:102AE00092FC8220CDE90004694638460294FEF744
:102AF00095FB70200126CDE900060225694638467F
:102B0000CDE90245FEF78AFBCDE90056694640460D
:102B1000CDE90245FEF782FB41F23000CDE9000429
:102B2000694640460294FEF779FB44F240008DE886
:102B3000510069464046FEF771FB4FF4407000902B
:102B400001AA112082E8310069464046FEF766FB83
:102B500006B0BDE8F081000000100240000801400E
:102B6000000C014010B586B0002418480094019470
:102B700002940394049414490594016040F2CF2117
:102B8000C0E9011440F2E731C0E9031444618461F3
:102B9000FEF792FF08B1FEF7CFFA4FF48050009095
:102BA00069460A48FFF712F808B1FEF7C5FA04941F
:102BB00004A906480594FEF74BFF002801D0FEF754
:102BC000BBFA06B010BD0000002C0140D000002070
:102BD00010B586B000241748009401940294039421
:102BE00004944FF080410594016041F61F41C0E913
:102BF000011442F20F71C0E903148461FEF75CFF17
:102C000008B1FEF799FA4FF48050009069460948E0
:102C1000FEF7DCFF08B1FEF78FFA049404A905481B
:102C20000594FEF715FF002801D0FEF785FA06B0DF
:102C300010BD00001801002010B58AB000240794D0
:102C40001C2168460894FDF763FD1648144901608D
:102C50004721C0E9011440F6C311C0E9031484619F
:102C6000FFF749F908B1FEF767FA079407A90D487D
:102C70000894FEF7EDFE08B1FEF75EFA6020CDE99C
:102C8000000402940422694606480494FFF7CDF834
:102C900008B1FEF751FA0348FFF7A0F80AB010BDDB
:102CA00000080040600100200C4810B50A4901608E
:102CB0004FF4E1314160002181600C22C160C0E924
:102CC00004128161C161FFF74BFB002803D0BDE80E
:102CD0001040FEF731BA10BD00380140A8010020B5
:102CE0000C4810B50A4901604FF4165141600021AB
:102CF00081600C22C160C0E904128161C161FFF7EB
:102D00002FFB002803D0BDE81040FEF715BA10BD18
:102D100000440040F00100200C4810B50A49016051
:102D20004FF4E1314160002181600C22C160C0E9B3
:102D300004128161C161FFF713FB002803D0BDE8D5
:102D40001040FEF7F9B910BD0048004038020020DD
:102D5000FEE7FEE710B50021074C0A46002004EB11
:102D6000C1131A54401CC0B28028FAD3491CC9B2FE
:102D70000829F3D310BD000080020020F0B50B44F9
:102D800024E0044685181DE07F2C19D8002917DBA4
:102D90003F2915DCCE1701EB56764FEAE60C0D4FB6
:102DA00026F0070607EBCC172744A1EB060E97F891
:102DB00000C0012606FA0EF62CEA060C87F800C0C1
:102DC000641C24B2A542DFDC491C09B28B42D8DC6A
:102DD000F0BD00008002002010B500204FF47A7290
:102DE0000021491C9142FCD3401C9042F8D30120A1
:102DF00000F0B4F9BDE81040012000F0B7B970B59B
:102E000000240646802525FA04F0304000D0012039
:102E100000F0ACF9012000F0A1F9002000F09EF9CB
:102E2000641CE4B2082CEED3012000F097F9BDE851
:102E30007040002000F092B910B5012000F096F922
:102E4000012000F08BF9002000F090F9BDE810405F
:102E5000002000F083B910B5002000F087F90120B0
:102E600000F07CF9BDE81040012000F07FB910B5FA
:102E7000FFF7B2FFAE2000F081F9D52000F07EF917
:102E8000802000F07BF9A82000F078F93F2000F0C6
:102E900075F9D32000F072F9002000F06FF940209E
:102EA00000F06CF9A12000F069F9C82000F066F983
:102EB000DA2000F063F9122000F060F9812000F0C0
:102EC0005DF9CF2000F05AF9D92000F057F9F12030
:102ED00000F054F9DB2000F051F9302000F04EF9F9
:102EE000A42000F04BF9A62000F048F98D2000F056
:102EF00045F9142000F042F9AF2000F03FF9FFF748
:102F000029FFBDE8104000F015B90246012000E09D
:102F10005043491EFCD2704710B50C4640F0B0003B
:102F200000F02CF9102040EA141000F027F904F00A
:102F30000F00BDE8104000F021B9000008B5082BD3
:102F40000DD0062B0AD10A4B02EB420203EB4202E0
:102F5000C03A00920823062200F054F808BD054B41
:102F600003EB0212A2F50072102300920822F3E78D
:102F7000924C0008A24600082DE9FC5F0024904610
:102F80008B4682462546DFF87490019430E001A913
:102F90000855641CE4B2022C28D30024264606E01F
:102FA000384601A9FDF706FC68B1761CF6B2C6EBFF
:102FB000C60000EB800101EB0900074610A1FDF7F8
:102FC000F9FB0028ECD1C6EBC60000EB800101EB59
:102FD0000900C01C0090681C41080AEB0110103861
:102FE000102300B21A46594600F00CF86D1CEDB2E1
:102FF00018F805000028CAD1BDE8FC9FCC4E000897
:10300000000000002DE9F04F1F4616460D4682468F
:103010000024FFF7B3FE7F1EF81707EB5070012165
:10302000DFF898B001EBE00743E000203DE000BF8F
:103030000AEB00037F2B36D8E91705EB5171CA1054
:1030400021F00701691A002D03DA521E083112B26D
:1030500009B202EB0409B9F1070F0ED8099A04FB73
:1030600006F802440BEBC91E18F802201EF803C034
:103070008A404CEA020C0EF803C009F10102072A4B
:1030800011D80BEBC91202EB0308099A04FB06FCEA
:10309000024498F880301CF80220C1F10801CA40AF
:1030A000134388F88030401CC0B2B042C0D3641CC7
:1030B000E4B2A742B9DCBDE8F08F00008002002036
:1030C0002DE9F04700241D4690468A4681460A278E
:1030D000089E14E0291B0A20491EFFF716FFB8FBC3
:1030E000F0F0B0FBF7F107FB110204FB069000B211
:1030F000334651463032FFF721FF641CE4B2AC4244
:10310000E8D3BDE8F0872DE9F0411E461546884614
:103110000746002408E004FB067000B2334641462F
:10312000FFF70CFF641CE4B22A5D002AF3D1BDE86E
:10313000F081000070B5084D002400212046FFF703
:10314000EBFE05EBC410802100F029F8641CE4B20A
:10315000082CF2D370BD00008002002002464FF41C
:1031600080710148FEF74FB9000C014002464FF450
:1031700000710148FEF747B9000C014010B5044644
:10318000FFF75AFE7820FFF73AFE0020FFF737FEE0
:103190002046FFF734FEBDE81040FFF75CBE70B577
:1031A0000D460646FFF748FE7820FFF728FE402030
:1031B000FFF725FE002404E0305DFFF720FE641CCD
:1031C000E4B2AC42F8D3BDE87040FFF744BE000063
:1031D00038B52B4CE07940B1012850D1012129A20A
:1031E0000846BDE83840FFF7C7BE01212AA20846BD
:1031F000FFF7C2FE2DA210210120FFF7BDFE08201F
:10320000012300901A4610212820FFF759FF2AA217
:1032100010213020FFF7B0FE64212948FDF756FA4F
:10322000227828A12648FDF73FF80823244A1021D8
:103230005A20FFF768FF2248FDF729FA6A3000B2EA
:1032400022A21021FFF798FE21A220210120FFF7E2
:1032500093FE607908B123A200E023A220213C2044
:10326000FFF78AFE22A230210120FFF785FEA07918
:1032700008B11CA200E01CA230213C20B1E738BDFF
:1032800000000020EFBFBDEFBFBDEFBFBDEFBFBD72
:10329000C4A3CABD00000000EFBFBDEFBFBDEFBFBC
:1032A000BDC6BAC5A3EFBFBD00000000EFBFBDD5CE
:1032B000B7D1A3EFBFBD0000D0A1CAB1000000008C
:1032C0005C0000202564202000000000D4AA00003B
:1032D000EFBFBDEFBFBDCEBBD2BBEFBFBDEFBFBD2C
:1032E00000000000D5BC0000EFBFBDEFBFBD000077
:1032F000EFBFBDEFBFBDCEBBEFBFBDEFBFBDEFBFEB
:10330000BDEFBFBD000000007047000070B504466F
:10331000002503E000F076F8012804D02046641E62
:10332000E4B2F7D270BD1248042205442946114880
:10333000FDF715FA0F480024014604710E4800F00D
:103340002DF80C48291D0622401DFDF708FA0948F2
:10335000094A401D0346847108A102F11000FCF7E0
:10336000A3FF05481030047300F00CF8012070BD75
:10337000AC07002036000020D808002025732573F4
:10338000000000000349002008804FF496710248B5
:10339000FDF79CB930000020AC0700202DE9F0417A
:1033A000114C07460020114D0E462070C0B200EBB4
:1033B000800005EB800130460A31FDF7FBF900285B
:1033C000207807D0401CC0B220701A28EED300200D
:1033D000BDE8F08100EB800005EB80013846FDF789
:1033E00032F90120F4E7000032000020695700089C
:1033F000012202490248FFF779B800002D000020A1
:10340000380200200A484178052902D2491C41703F
:103410000AE0084900224270098829B1438899428C
:1034200004D1428001207047002070474180FBE7B3
:1034300032000020300000202DE9F04FC54C9BB039
:10344000207970B1C44D20212846FDF7D7FF80B107
:103450000020607110212846FDF7D0FF58B10020F0
:10346000A07101A8FFF7E0FA4FF00108012804D08D
:1034700021E00120EDE70120F2E7102344220121A1
:103480003C20FFF77BFC0D21B448FDF71FF984F8C1
:10349000098001A9B148FDF7D6F8B1A1B248FDF7FE
:1034A000D2F801A9B148FDF7CEF80823AB4A0121B3
:1034B0003C20FFF728FEDFF8B8B29BF80000012897
:1034C00004D1A8A1A548FDF775F9B0B9607A012823
:1034D00013D06420FFF71AFF01287DD0A1A19F48D7
:1034E000FDF768F9002805D1102340221946184637
:1034F000FFF744FC1BB0BDE8F08F9848FDF7C7F814
:10350000964900260E54084600F0DAFD994FDFF880
:10351000689205004FF0140A7ED064219748FDF7A9
:10352000D5F815F8640F00906B78AA7894A19348A9
:10353000FCF7BAFE1023802219460120FFF71EFC7B
:10354000102193A20846FFF717FD97A22021012022
:10355000FFF712FD0823894A20212820FFF7D3FD19
:103560000220387594A13846FDF76DF887F815A04C
:103570003846FFF757F8A8786189084480B260811F
:103580006978643D11B995F8641009B1401C6081F7
:10359000217880B24843608189A230210120FFF761
:1035A000EBFC64217548FDF791F8628988A17348A6
:1035B000FCF77AFE0823714A30212820FFF7A3FD8B
:1035C0006E48FDF764F82D3000B283A23021FFF77A
:1035D000D3FCFFF7AFFD00E0A4E0804800F0C4F9A1
:1035E00095F86600607095F86500A07095F8640025
:1035F000E0700020FDF75CFB4D4602212846FDF7F8
:10360000FDFE0028F9D04FF4FA60FDF798FB00208A
:1036100000F0AAF9102300E010E0402219461846F5
:10362000FFF7ACFBFFF786FD4C4800F01FFDFFF7EE
:1036300091FB2079401E2071668157E02079322865
:1036400049D26748FEF796FA1023802219460120D6
:10365000FFF794FB10237D2230210120FFF78EFB22
:1036600010237D2220210120FFF788FB10215DA27D
:103670000846FFF781FCFFF75DFD87F814805FA126
:103680003C48FCF7E0FF87F815A03A48FEF7CAFF70
:10369000524800F069F90120FDF70AFB4D4602216E
:1036A0002846FDF7ABFE0028F9D04FF4FA60FDF78D
:1036B00046FB002000F058F9102340221946184616
:1036C000FFF75CFBFFF736FD2079401C2071234893
:1036D00000F0AEFC0AE0032038754AA12548FCF74B
:1036E000B2FF0F2078752348FEF79CFF23481B4943
:1036F0006430FCF7A8FF10214448FCF7E7FF1B48A3
:103700000D210660868086711448FCF7DFFF402299
:10371000102301211046FFF731FB8BF80060267261
:103720006672E7E615480D496430FDF743F858B175
:10373000364A01214020FFF71FFC08230B4A0121D4
:103740005120FFF7E0FCD5E60C4810216430FCF76F
:10375000BDFFC9E600000020000C0140E808002081
:103760003465616300000000360000203B0000204B
:1037700042000020F5080020000801405C00002005
:10378000253032643A253032643A25303264000004
:10379000EFBFBDEFBFBDEFBFBDDAB3EFBFBDEFBF42
:1037A000BDEFBFBD00000000CAB1EFBFBDEFBFBDA0
:1037B000EFBFBDEFBFBD0000303030303200000041
:1037C000EFBFBDEFBFBDEFBFBDC3A3EFBFBD0000E7
:1037D0002564202020200000D4AA00000000B4426C
:1037E00018010020EFBFBDEFBFBDEFBFBDDABDEFD9
:1037F000BFBDEFBFBDEFBFBD0000000030303030B7
:10380000310000003030303033000000D808002094
:103810002DE9F041354C064600252A462021204658
:10382000FDF7F1FD0220FDF795FA00221021204658
:10383000FDF7E9FD0220FDF78DFA7E2000EA460043
:1038400040F080070826380601D5012200E000225A
:1038500040212046FDF7D7FD0220FDF77BFA01222B
:1038600020212046FDF7CFFD0220FDF773FA7806F0
:10387000070E002220212046FDF7C5FD0220FDF79E
:1038800069FA761E16F0FF06DDD1082601222021F6
:103890002046FDF7B8FD0220FDF75CFA6806070E2A
:1038A00080212046FDF7AAFD40EA070500222021DD
:1038B0002046FDF7A8FD0220FDF74CFA761E16F013
:1038C000FF06E3D1012220212046FDF79CFD0220C6
:1038D000FDF740FA012210212046FDF794FD022059
:1038E000FDF738FA2846BDE8F081000000080140E5
:1038F000FEB50646014600240D48FCF792FE050081
:1039000012D03046FCF7C3FE28446A46C01C03E0D0
:103910001155641CE4B2401C01782C29F8D11046E2
:10392000FCF772FE00B2FEBD4FF0FF30FEBD00009E
:10393000800600207047000010B5074900F07AFCAF
:10394000064900F06DFD064900F012FC00F034FD60
:1039500004490968886310BD000034430000FA443C
:103960000000FA436001002010B504460421044819
:10397000FEF704FB2046BDE81040FFF7DDBF000066
:103980006001002070B50C460546FFF741FF40EA94
:1039900004012846BDE8704000F0C6BAFDF73EBD00
:1039A00030B58FB028216846FCF7B2FE14210AA872
:1039B000FCF7AEFE01210804CDE9001000240294BA
:1039C00002250491CDE907504FF4E01009906846B4
:1039D000FDF798FE08B172B6FEE70F20CDE90A05A3
:1039E0004FF48060CDE90C4002210AA80E94FDF747
:1039F000ADFD002801D072B6FEE70FB030BD7047B4
:103A00000148FEF752B90000D00000200148FEF73F
:103A10004CB9000018010020F0B50268194B1A4C8F
:103A20001A4D4FF08047984205D0B84203D0A042CB
:103A300001D0A84203D122F070064A68324398426E
:103A400005D0B84203D0A04201D0A84203D122F44D
:103A50004074CA6822434C6922F08002224302600B
:103A60008A68C2620A688262984201D10969016368
:103A7000012141610169C90703D0016921F00101F8
:103A80000161F0BD002C014000040040000800402E
:103A900010B501F01F030121046A99408C430462B0
:103AA000016A9A401143016210BD10B5846842EA70
:103AB000032224F47F440A432243826010BD8268BB
:103AC00022F070020A4342F0070181607047000053
:103AD00030B5036A026A22F0010202624268846918
:103AE00024F073050C682C4323F002058B682B43EC
:103AF0000A4DA8420BD123F00805CB6822F440728E
:103B00002B434D6923F0040315438A692A4342601D
:103B1000846149684163036230BD0000002C0140AC
:103B200030B5026A036A23F01003036243688469B4
:103B30000D6824F4E64444EA05248D6822F020024E
:103B400042EA05120B4DA8420ED1CD6822F0800248
:103B500042EA05124D6923F4406343EA85038D6907
:103B600022F0400243EA850343608461496881632F
:103B7000026230BD002C014030B5036A026A22F4B3
:103B8000807202624268C46923F4007324F07305F2
:103B90000C682C438D6843EA05230C4DA8420ED1D6
:103BA000CD6823F4006343EA05234D6922F44052B3
:103BB00042EA05128D6923F4806342EA05124260ED
:103BC000C4614968C163036230BD0000002C01403C
:103BD00030B5046A026A22F4805202624268C36904
:103BE0000D6823F4E64343EA05238D6824F400546A
:103BF00044EA0534064DA84204D14D6922F48042BE
:103C000042EA85124260C36149680164046230BDC2
:103C1000002C014010B5036A046A24F00104046218
:103C2000846924F0F00444EA021423F00A020A43EF
:103C30008461026210BD10B5036A046A24F01004A6
:103C40000462846923F0A00324F4704444EA02323D
:103C500043EA01118261016210BD00000A4601467B
:103C600064230148FEF78CBCF001002010B5406AC7
:103C70000021C185C184FEF73BFA10BD01680C31FB
:103C800051E8002F22F4907241E80023002BF5D177
:103C90000168143151E8002F22F0010241E80023AD
:103CA000002BF5D1016B012909D101680C3151E8D4
:103CB000002F22F0100241E80023002BF5D1202133
:103CC00080F8421000210163704708B590F8421057
:103CD000222901D0022008BD82684FF480539A4205
:103CE00001D1016921B1816A9A421BD04AB10AE02F
:103CF0000268816A5268C2F308020A80816A891CDC
:103D000008E0026972B10268526802F07F020A702C
:103D1000816A491C8162C18D491E0904090CC18553
:103D200003D01BE002685268F1E70168CA6822F01C
:103D30002002CA600168CA6822F48072CA60016801
:103D40004A6922F001024A61202180F842100021D4
:103D50004163026B012A03D0FEF7D6FB002008BDA9
:103D6000016301680C3151E8002F22F0100241E894
:103D70000023002BF5D101680A68D20602D50A6833
:103D800049680091818DFEF7B2F9E7E770B5044606
:103D900000680169E26821F4405111430161216921
:103DA000A0680843616908432168CA6841F20C634E
:103DB0009A430243CA6020684169A26921F44071B4
:103DC000114341611E492068884202D1FDF764FC1D
:103DD00001E0FDF751FC00EBC00101EB001260684F
:103DE00064218000B2FBF0F3B3FBF1F36FF018062F
:103DF0007343B2FBF0F5B2FBF0F605EB830532231B
:103E000003EB0515B5FBF1F5B6FBF1F605F0F00592
:103E100005EB0615B2FBF0F6B2FBF0F0B0FBF1F0EB
:103E20006FF01802504306EB800003EB0010B0FB6C
:103E3000F1F0216800F00F002844886070BD000098
:103E40000038014081628285C285002141642221BF
:103E500080F84210016921B10168CA6842F4807299
:103E6000CA6001684A6942F001024A610068C1689B
:103E700041F02001C160002070472DE9F8439846C9
:103E800017460D460446089E24E0701C22D0FDF71C
:103E9000BFFAA0EB0800B0421AD8CEB12068C168C2
:103EA000490717D5802D15D0402D13D00168C9437F
:103EB00009070FD401680025406800902046FFF7ED
:103EC000DDFE0820606484F840500120BDE8F883DE
:103ED0000320FBE72068006835EA000004D00020DA
:103EE000B842D2D00020F1E70120F9E70148FEF7FF
:103EF00001B90000A80100200148FEF7FBB800004E
:103F00003802002010B50446FCF7C1FB214682B2FE
:103F1000BDE810404FF6FF730148FEF731BB0000CB
:103F2000A8010020FEE700002DE9F041334C0E46C9
:103F30000546002220212046FDF765FA00221021C7
:103F40002046FDF760FA7E2000EA4507082538067E
:103F500001D5012200E0002240212046FDF753FA5E
:103F60000220FCF7F7FE012220212046FDF74BFA44
:103F70000220FCF7EFFE7806070E002220212046E3
:103F8000FDF741FA0220FCF7E5FE6D1E15F0FF0576
:103F9000DDD10825300601D5012200E000224021B4
:103FA0002046FDF730FA0220FCF7D4FE0122202142
:103FB0002046FDF728FA0220FCF7CCFE7006060E1C
:103FC000002220212046FDF71EFA0220FCF7C2FE47
:103FD0006D1E15F0FF05DDD1012220212046FDF7E1
:103FE00012FA0220FCF7B6FE012210212046FDF74E
:103FF0000AFABDE8F0410220FCF7ACBE000801401F
:104000000907090E002804DB00F1E02080F8001405
:10401000704700F00F0000F1E02080F8141D704799
:1040200030380A2801D20120704700207047000074
:104030002DE9F0410C4E07466C20F568FCF7DEF8E0
:10404000040008D03946FCF7FEFA002084F863002B
:10405000A0661DB9F460BDE8F0810546A86E002891
:10406000FBD1AC66F7E70000000000202DE9F0412D
:10407000124E07460025F46806E039462046FCF754
:1040800099FB30B12546A46E002CF6D10020BDE886
:10409000F081A06E7DB1A866002084F8670084F8E6
:1040A000660084F8650084F86400A0662046FCF78A
:1040B000D4F80120EBE7F060EEE7000000000020FC
:1040C00070B505460748C46805E021462846FCF758
:1040D00071FB20B1A46E002CF7D1002070BD2046EA
:1040E00070BD000000000020FDF7A0F9FFF758FCAC
:1040F000FEF7C8FCFEF7D8FDFEF70EFEFEF732FD18
:10410000FEF766FDFEF798FDFEF7EAFDFEF7AFFE4F
:10411000FCF72EFFFFF76CF9FEF70EFB0020FFF710
:1041200023FC074C6420FCF7F7FEFEF70BFBE0795D
:1041300008B9FFF781F9FFF74BF8FEF7FBFFF1E74E
:104140000000002010B500290AD00878002807D008
:1041500005487844FCF72EFB002801D0002010BD54
:104160000248784410BD00000E1A0000061A000034
:1041700090EA010F48BF81F0004100F12482421A09
:104180003CBF801A89184FEAD0524FF07F4C1CEA8E
:10419000410FA2EBD15318BF9CEA026F00F03B80A5
:1041A0004FF0004C4CEA00204CEA012121FA03FCBC
:1041B00010EB0C0C1ED202F1FF325FEA1C2040EB28
:1041C000C25038BF70471CF07F0F4FEA400C18BF39
:1041D000BCF17F4F38BF7047C3F12003994008BF3F
:1041E00020F00100BCF17F4F38BF7047A0F1C04004
:1041F00000F0DDB94FEA3C00000A40EBC25028BF96
:104200001CF0FF0F4FEA400CE6D018BFBCF17F4F07
:1042100038BF7047EAE79CEA026F05D010EA5C0FEE
:1042200008BF00F00040704710B500F07AF900BFF9
:1042300064FBBE3E4FF47F0C1CEAD0121EBF1CEA8A
:10424000D11392EA0C0F93EA0C0F00F0858090EAEC
:10425000010F48BF42F4807240F4000C41F40000AA
:104260002CF07F4120F07F4000B58142A2EB030299
:104270000FF2081CACEB504EC0F100009EF800E0BD
:104280004FEA4E0E00FB0EFC38BF49004FEA2C1CD3
:1042900002F5FA020CFB0EF34FEACE1E4FEA112C88
:1042A0004FEAC1210EEB635E42EB22420EFB0CFC97
:1042B0004FEA1C5300FB03114FEA112C4FEA013166
:1042C0000EFB0CFC4FEADC4C00FB0C11C14228BF7A
:1042D00009184CEB03335DF804EB10EB410143EBA1
:1042E000C250B2F57C0F38BF704729D512F0F00FDD
:1042F0001CBF00F1C04000F0004070470081828385
:104300008485868788898B8C8D8E8F9192939596E4
:1043100097999A9C9D9FA0A2A3A5A7A8AAACAEB06E
:10432000B2B3B5B7B9BCBEC0C2C5C7C9CCCED1D473
:10433000D7D9DCDFE2E6E9ECF0F3F7FAFE000000A3
:104340004FEA400C0CF1807CBCF17E4F28BF7047D7
:10435000B0F1C04000F02BB990EA010F0CEAD11384
:1043600048BF42F48072624538BF634507D213F4F8
:104370007F0F16D080EA010000F00040704710B5B2
:1043800000F0CFF8097EFC3E00F005B880EA01009D
:1043900000F00040704780EA010000F0004000F0AB
:1043A00006B912F47F0F04BF0248704780EA01008B
:1043B00000F0FDB80000C07FC10DD1F19E0206DB08
:1043C0004FEA002343F0004323FA02F07047004213
:1043D00007D54FEA4001B1F1FE4F02D24FF0000085
:1043E000704710B500F09DF8499224800020704776
:1043F0006FEA200070470000B0FA80F310FA03F271
:10440000C3F19D030AD0D90501EB1220530638BF32
:10441000704700F1010008BF20F001007047000064
:104420004FF47F0C1CEAD0121EBF1CEAD11392EA93
:104430000C0F93EA0C0F00F0478090EA010F48BF81
:1044400042F480724FF0004C4CEA00204CEA01210B
:1044500002EB0302A0FB0113A2F50002002918BF22
:1044600043F001035B0028BF4FEA330342EB2242D3
:104470005FEA132C4CEBC2502EBFBCEB436FB2F57E
:104480007C0F70474FEA036CBCF1004F08BF20F06F
:104490000100B2F57C0F38BF70470BD582F0FF02E8
:1044A00012F5803FC8BF704700F1C040D8BF00F090
:1044B0000040704700F5000C5FEA4C0C48BF7047A5
:1044C000B0F1C04000F073B890EA010F0CEAD113CC
:1044D00048BF42F48072624538BF634504D280EA27
:1044E000010000F00040704710B500F01AF800BF5E
:1044F0008900013E00F007B800F009B85FEA410CFE
:104500005FEA1C6C08D080EA010000F050B85FEA56
:10451000400C5FEA1C6CF6D14FF00040A0F5800023
:1045200070470EF1020E2EF0030E5EF8044B24428B
:1045300004D44FEA4102B2F17F4F11D84FEA400351
:10454000B3F17F4F0CD80ED14FEAD07CB2F17F4F40
:104550000CEB4C0C0CF1020C08BF4CEBD17C04E0D2
:104560004FF0080C01E04FEAD17C0CEB4C0324FA2D
:1045700003F404F00704B4F1040C06D20EEB840C2F
:10458000BDE810404CF0010C6047DFE80CF0070874
:1045900002024FF00040A0F5800010BD0846420026
:1045A00018BFD2F1807288BF00F0004010BDFF211B
:1045B00041EAD050C005704790EA010F48BF81F032
:1045C00000413FF5DCAD421A04D882F00042A0EB76
:1045D000020011444FEAD0524FF07F4C1CEA410FC9
:1045E000A2EBD15318BF9CEA026F4AD04FF0004CA7
:1045F0004CEA00204CEA012121FA03FCB0EB0C0C40
:104600000FD412F0FE0F36D05FEA4C001DD5001219
:1046100040EBC25038BF70471CF03F0F18BF7047C7
:104620000BE0A2F101025FEA1C2040EBC25038BF50
:1046300070471CF07F0F18BF7047C3F120039940EB
:1046400014BF401E20F00100704780084FEA12237B
:1046500008BF7047B0FA80FCA2EB0C02CCF1280C2A
:1046600060FA0CF093EA122F04BF00EBC2507047BF
:104670004FEAC3707047130A5FEADC1008BF704747
:10468000F6E79CEA026F04D010EA5C0F08BF002036
:10469000704710B5FFF745FF40DFF63E81F0004060
:1046A0007047000000000000000000000000000053
:1046B0000000000000F8000000000000003330009F
:1046C000000000160E00160E0000000000000000A2
:1046D000000040C07840C0784000043F04043F041C
:1046E0000400007088FC08300000001820FF211E24
:1046F0000000F008F000E018000000211C031E215B
:104700001E0000F00888700000001E2123241927D5
:104710002110000000160E00000000000000000044
:104720000000000000E0180402000000000718204C
:10473000400000020418E0000000004020180700BC
:104740000000404080F0804040000202010F010262
:104750000200000000F0000000000101011F010143
:104760000100000000000000000000B07000000028
:104770000000000000000000000000010101010134
:1047800001010000000000000000003030000000C7
:10479000000000000000806018040060180601009E
:1047A000000000E010080810E000000F10202010AA
:1047B0000F00001010F8000000000020203F202013
:1047C00000000070080808887000003028242221AA
:1047D0003000003008888848300000182020201160
:1047E0000E000000C02010F8000000070424243F41
:1047F000240000F8088888080800001921202011EA
:104800000E0000E0108888180000000F1120201111
:104810000E0000380808C83808000000003F0000FB
:1048200000000070880808887000001C22212122E6
:104830001C0000E010080810E000000031222211E6
:104840000F00000000C0C000000000000030300079
:104850000000000000C0C0000000000080B0700038
:104860000000000080402010080000010204081031
:104870002000404040404040400004040404040440
:1048800004000008102040800000002010080402EE
:104890000100007048080808F000000000303601F0
:1048A0000000C030C828E810E000071827242314AF
:1048B0000B000000C038E0000000203C230202276B
:1048C000382008F8888888700000203F20202011B8
:1048D0000E00C030080808083800071820202010F3
:1048E000080008F808080810E000203F20202010E9
:1048F0000F0008F88888E8081000203F20202320B7
:10490000180008F88888E8081000203F20000300FD
:104910000000C03008080838000007182020221EB8
:10492000020008F808000008F808203F21010121D2
:104930003F20000808F8080800000020203F202041
:10494000000000000808F8080800C08080807F0090
:10495000000008F888C028180800203F20012638E9
:10496000200008F8080000000000203F2020202040
:10497000300008F8F800F8F80800203F003F003F3A
:10498000200008F830C00008F808203F2000071871
:104990003F00E01008080810E0000F102020201051
:1049A0000F0008F808080808F000203F2101010165
:1049B0000000E01008080810E0000F182424385008
:1049C0004F0008F8888888887000203F2000030C7A
:1049D0003020007088080808380000382021212283
:1049E0001C00180808F8080818000000203F2000E4
:1049F000000008F808000008F808001F2020202008
:104A00001F000878880000C83808000007380E0129
:104A10000000F80800F80008F800033C0700073C15
:104A20000300081868808068180820302C03032CC5
:104A300030200838C800C83808000000203F200097
:104A4000000010080808C838080020382621202057
:104A50001800000000FE020202000000007F40403B
:104A60004000000C30C000000000000000010638CB
:104A7000C00000020202FE000000004040407F0033
:104A800000000020100804081020000000000000B2
:104A90000000000000000000000080808080808016
:104AA00080800002040800000000000000000000F8
:104AB0000000000080808080000000192422222253
:104AC0003F2008F8008080000000003F11202011E6
:104AD0000E000000008080800000000E11202020C9
:104AE0001100000000808088F800000E11202010C6
:104AF0003F200000808080800000001F22222222B0
:104B00001300008080F0888888180020203F202033
:104B100000000000808080808000006B949494935B
:104B2000600008F8008080800000203F2100002005
:104B30003F2000809898000000000020203F2020A7
:104B40000000000000809898000000C08080807FF6
:104B5000000008F8000080808000203F24022D30F3
:104B60002000000808F8000000000020203F20205E
:104B700000008080808080808000203F20003F20D7
:104B8000003F008080008080000000203F21002046
:104B90003F200000808080800000001F2020202017
:104BA0001F00808000808000000080FFA120201175
:104BB0000E000000008080808000000E112020A0E8
:104BC000FF80808080008080800020203F212000A6
:104BD0000100000080808080800000332424242491
:104BE0001900008080E0808000000000001F20206D
:104BF00000008080000000808000001F2020201026
:104C00003F20808080000080808000010E300806F8
:104C1000010080800080008080800F300C030C3009
:104C20000F0000808000808080000020312E0E3137
:104C30002000808080000080808080818E70180637
:104C4000010000808080808080000021302C2221A3
:104C5000300000000000807C020200000000003FE5
:104C6000404000000000FF00000000000000FF00C6
:104C700000000002027C800000000040403F000075
:104C80000000008040408000008000000000000123
:104C900001000000000000000000002F00000000E4
:104CA0000700070000147F147F1400242A7F2A12B3
:104CB00000231308646200364955225000000007A3
:104CC000000000001C224100000041221C000014D2
:104CD000083E08140008083E0808000000A0600014
:104CE00000080808080800006060000000201008A4
:104CF0000402003E5149453E0000427F4000004210
:104D000061514946002141454B31001814127F1072
:104D1000002745454539003C4A49493000017109A1
:104D2000050300364949493600064949291E000055
:104D300036360000000056360000000814224100FC
:104D4000001414141414000041221408000201512C
:104D50000906003E4955592E007C1211127C007F35
:104D600049494936003E41414122007F4141221CD0
:104D7000007F49494941007F09090901003E414935
:104D8000497A007F0808087F0000417F4100002029
:104D900040413F01007F08142241007F40404040D5
:104DA000007F020C027F007F0408107F003E41411B
:104DB000413E007F09090906003E4151215E007F06
:104DC000091929460046494949310001017F01017D
:104DD000003F4040403F001F2040201F003F403820
:104DE000403F00631408146300070870080700615F
:104DF0005149454300007F41410000020408102052
:104E0000000041417F0000040201020400404040D4
:104E10004040000001020400002054545478007FF8
:104E20004844443800384444442000384444487FCF
:104E300000385454541800087E0901020018A4A434
:104E4000A47C007F080404780000447D40000040FA
:104E500080847D00007F102844000000417F4000D6
:104E6000007C04180478007C08040478003844446A
:104E7000443800FC242424180018242418FC007C46
:104E80000804040800485454542000043F444020BF
:104E9000003C4040207C001C2040201C003C403056
:104EA000403C004428102844001CA0A0A07C0044E2
:104EB00064544C440000087F41000000007F000063
:104EC0000000417F0800000804081008A3AC00009F
:104ED00000000000000000000000000000000000D2
:104EE000005838000000000000000000000000A191
:104EF000A30000000000000000000000000000000F
:104F00000000000018242418000000000000000029
:104F10000000BCBD001012F2AAAABFA0E0A0A7AA80
:104F2000AAEA090C002020AB6A2A3E2A2B2A3E2A34
:104F30006AAB202000BDFA0040424A52427E424203
:104F4000427E42524A424000000000FF494949491E
:104F5000494949FF00000000C1C900404042CC005F
:104F600000020202F20A06020000000040201F2098
:104F7000404048504F404040404000BCAA00080814
:104F80008888888888FF88888888880808000000C2
:104F900000FC44444444444444FC00000000BADAA9
:104FA0000000003E222A3222FE22322A223E000047
:104FB000008868090929C9090F29C9090929C808E8
:104FC00000CBD500044444445F44F44444445FC4EB
:104FD0000404040000108E40201807004080403F69
:104FE00000010E00D5E30020C20C801010FF1090CD
:104FF000FC4442C342400004047E0142827F81405F
:105000003F0000FF000000CDEE0000F80C0BF81090
:105010000C242425262424140C00007F21217F80C9
:1050200041310F01013F41417100C3F60000F80119
:1050300002E02222FA2222E20202FE000000FF0029
:10504000206722221F12121B3080FF0000B8D300FD
:1050500012D65A535AD612286457CA5652202000E4
:10506000101715FD15171081BD453545BD01000010
:10507000C2B3001008FCAAABAAAAFAAAAAAEA8F862
:10508000000000020202FAAAAAAAAAAAAAAAFA027E
:10509000020200D4A500424AD26A46D0087C4BCA1C
:1050A0006A5A4E48780040807F0001004A4A2552E3
:1050B000897E041A2100B6F500005E525E405E5201
:1050C0005E0000FE0222DA06000101070545854563
:1050D0003D0100FF0810080700CFE60020C20C8049
:1050E0001090FF9000FC444444FC000004047E0542
:1050F0000201FF0001FF444444FF0000D4C100004E
:1051000000FE02965A33FE325A9602FE0000000458
:1051100004051D151515151555955535040400C7BD
:10512000ED004444FC44440004E42425262424E403
:10513000040010301F080820100D41817F0105096F
:105140003000B4A800000000FF00000000FE0000D6
:105150000000FF00008040300F000000003F000012
:105160000000FF0000B9F3004040405E5252527F01
:105170005252525E404040000080809F4141211DBC
:105180000121215F40800000D4C6004040424242DD
:1051900042C2424242424242404000002070282423
:1051A00023202020242830E0000000C9C20000FE97
:1051B000225A8608284808FF08482808000000FFEF
:1051C0000408874121190701071921418100B8CA44
:1051D0000000101010FF101010101010FF10101011
:1051E0000000000000FF424242424242FF00000035
:1051F00000C7E000404454545454547F5454545411
:1052000054444000000000FF151515151555957FF5
:1052100000000000C3C900229A8A8AAFAAAAAAAADB
:10522000AAAF8A8AAA1A000050524A2A25538A7CB9
:1052300008142422404000B9F0001010D0FF901054
:10524000404444447F4444444000040300FF0003BE
:10525000404444447F4444444000C4FE0020188835
:10526000888888898E8888888888281800000000A7
:10527000000040807F0000000000000000BEA90088
:10528000040404E424242526242424E4040404003F
:105290000040201B0242827E0202020B10600000CE
:1052A000B3F60000007C40404040FF40404040FCDE
:1052B000000000007C40404040407F404040404073
:1052C000FC0000B3A1002020FF20200042E2524A4F
:1052D000C64240C0000010301F0828108C43201820
:1052E0004780403F0000C8EB00000000000001E2E2
:1052F0001CE000000000000000804020100C0300B3
:105300000000030C3040808000B3B50000088848DE
:1053100028180FE808080808080800000808090904
:10532000090909FF0909090909080800C5C600009B
:10533000FE20203F2000FC26A57C2424FC000080C9
:105340007F0101FF00080D0B0909FF09090800BAD8
:10535000C500808080BEA2A2A2A2A2A2A2BE80801E
:10536000800000000006050404044484443C00005E
:105370000000A3BA000000000000000000000000D0
:1053800000000000000000363600000000000000B1
:105390000000000000D5FD00000202C2020202FE71
:1053A00082828282820200004040407F4040407FF3
:1053B0004040404040404000D4DA00080888C838E7
:1053C0000C0B0808E8080808080800020100FF4064
:1053D000414141417F414141414000BDF8004040D1
:1053E00042CC00808888FF8888FF88888000004041
:1053F000201F2040504C4340405F40404000B3F6E7
:105400000000007C40404040FF40404040FC000025
:1054100000007C40404040407F4040404040FC0015
:1054200000CAB10000FC848484FC0010101010102D
:10543000FF101000003F1010103F000001064080D8
:105440007F000000B3A40080808080FF8080A09057
:105450008884828080800000000000FF40211204C8
:1054600008102020404000B7D10000023AAA6A3F4D
:105470002A2A2AFF2AAA2EE000000002819E424228
:10548000221A2222425E81000000D3C3000000FEE7
:1054900022222222FE22222222FE00000080601F01
:1054A000020202027F020242827F000000D4AA00B0
:1054B0002020222222E2222222E222222220200076
:1054C000804020100C030000003F40404040780026
:1054D000CAD50000FC0000FF004020D8171010F0D3
:1054E000101000000F0402FF008040211608162152
:1054F000408000B7D10000023AAA6A3F2A2A2AFF58
:105500002AAA2EE000000002819E4242221A222294
:10551000425E81000000B1EA001010D0FF90102020
:10552000222222E22222222000040300FF00130C88
:105530000340807F0001061800D7BC0000020CE089
:105540004020F84F4849FE484848080004047F00BE
:105550000000FF2222223F2222222000D0A10000B0
:105560000000E0000000FF00000020408000000874
:105570000403000040807F0000000000010E00CA0C
:10558000B10000FC848484FC001010101010FF1087
:105590001000003F1010103F0000010640807F0007
:1055A0000000B3B5000008884828180FE80808086C
:1055B000080808000008080909090909FF0909097C
:1055C0000909080800CEBB00008060F807109010A1
:1055D00011161010D0100000010000FF4040415E85
:1055E0004040704E41404000CAA300484AFA0AFEBB
:1055F00009F949A80000F00000FF0022110B04FF88
:105600000409122300000F40807F00D3E000808057
:105610004020504844C3444850204080800000400F
:10562000221A0242827F0202020A12600000D2BBEA
:1056300000808080808080808080808080808080EA
:10564000000000000000000000000000000000005A
:1056500000B6FE0000000808080808080808080846
:105660000800000010101010101010101010101072
:1056700010101000D5BC0000000000000000FF0862
:10568000080808080808000000FF41414141414165
:10569000414141FF000000BFD500100C4424140418
:1056A00005060404142444140C0000404041414108
:1056B000417F4141414140400000BDF40000003EB7
:1056C0000000BF4002462A922A464200000080485D
:1056D00029094D8D7B0B09284C98000000BCB100B6
:1056E0000010089493929292929A9690F000000083
:1056F0004030047484848CB4848484E40710600093
:10570000C4A3001010D0FF9014E4AFA4A4A4AFE48D
:10571000040000040300FF00894B2A1A0E1A2A4BCA
:10572000888000CABD00101090909090901010FFDB
:10573000101011161000002060203F101010000300
:105740000C102040F800000000FF010101310909A0
:105750000909897101010101FFFF8080808080803B
:105760009681808080808080FFBCBD0000000000AA
:1057700000000035313830000000000000BDFA00A4
:105780000000000000000036363462000000000017
:1057900000C1C9000000000000000038666264001B
:1057A0000000000000BCAA0000000000000000355E
:1057B000343039000000000000BADA0000000000B8
:1057C00000000039656431000000000000CBD50006
:1057D0000000000000000038326366000000000096
:1057E00000D5E300000000000000003664353900F9
:1057F0000000000000CDEE000000000000000037B7
:10580000363936000000000000C3F600000000003A
:1058100000000039356664000000000000B8D300C5
:105820000000000000000038643633000000000073
:1058300000C2B300000000000000003963383100EE
:105840000000000000D4A5000000000000000038A7
:10585000633662000000000000B6F50000000000A2
:1058600000000039313032000000000000CFE600B7
:105870000000000000000036653538000000000020
:1058800000D4C10000000000000000376361340054
:105890000000000000C7ED0000000000000000371D
:1058A000343363000000000000B4A80000000000D2
:1058B00000000035646464000000000000B9F300DB
:1058C00000000000000000386433350000000000D4
:1058D00000D4C6000000000000000034653931002B
:1058E0000000000000C9C2000000000000000039F4
:1058F000363535000000000000B8CA000000000086
:1059000000000037353138000000000000C7E0001B
:1059100000000000000000393735320000000000B0
:1059200000C3C9000000000000000038343939000D
:105930000000000000B9F000000000000000003688
:10594000383432000000000000C4FE0000000000F7
:1059500000000035623831000000000000BEA900E0
:1059600000000000000000346561630000000000DA
:1059700000000000AA080000AA00000000000102C8
:1059800002030405060708090A0B0C0D0E0F101080
:1059900000000000000000000102030406070809DF
:1059A0000000000001020304303132333435363751
:1059B0003839414243444546403058003031323353
:1059C0003435363738396162636465664030780053
:1059D00004000008000000000000000200010000B8
:1059E000100000007B22666F6E74223A222573221B
:1059F0002C226E756D626572223A222573222C224A
:105A0000666C6167223A25642C22686F7572223AAF
:105A100025642C226D696E757465223A25642C22EA
:105A2000736563223A25642C226D6F6E6579223A84
:105A300025647D0D0A00000034363261333438634A
:105A40003432666238656364356662373165613861
:105A500033323266613866323033623064346631F4
:105A6000393532373435326630336537383034368D
:105A70003930343237623735000000006B3238304D
:105A80003663386C595349002F6B323830366338DF
:105A90006C5953492F455350383236364455414E90
:105AA0002F757365722F4553503832363644554141
:105AB0004E000000455350383236364455414E00B2
:105AC000696F742D61732D6D7174742E636E2D73F7
:105AD00068616E676861692E616C6979756E637360
